:020000040800F2
:100000003015002059020008A71F0008051E00082F
:10001000A51F00088D0300087126000800000000DD
:100020000000000000000000000000009D0100082A
:100030002304000800000000F1010008E11F00088F
:1000400073020008730200087302000873020008BC
:1000500073020008730200087302000873020008AC
:10006000730200087302000873020008730200089C
:10007000730200089103000873020008730200086D
:1000800073020008B1030008C502000873020008EB
:10009000730200087302000873020008730200086C
:1000A000730200087302000873020008730200085C
:1000B000730200087302000873020008730200084C
:1000C000730200087302000873020008730200083C
:1000D0007302000873020008652600087302000816
:1000E000730200087302000873020008730200081C
:1000F0007302000873020008000000000000000006
:1001000000000000000000007302000873020008F5
:1001100000000000000000007302000873020008E5
:1001200073020008730200087302000873020008DB
:1001300073020008730200087302000873020008CB
:100140007302000800000000000000000000000032
:10015000000000000000000000000000000000009F
:100160000000000000000000730200087302000895
:100170007302000800000000730200080000000085
:100180000000000073020008DFF80CD000F088F8CF
:100190000048004795260008301500202B4B1968B1
:1001A0000868B0E8F04F80F30988BFF36F8F4FF015
:1001B000000080F3118870470000000006480068C6
:1001C000006880F3088862B661B6BFF34F8FBFF353
:1001D0006F8F00DF00BF00BF08ED00E0DFF80C000C
:1001E000016841F470010160704700BF88ED00E0D4
:1001F000EFF30980BFF36F8F144B1A681EF0100FD6
:1002000008BF20ED108A20E9F04F106008B44FF0CD
:10021000500080F31188BFF34F8FBFF36F8F02F050
:10022000B9FE4FF0000080F3118808BC1968086817
:10023000B0E8F04F1EF0100F08BFB0EC108A80F34A
:100240000988BFF36F8F704700BF00BF44000020D4
:10025000EFF30580704700000648804706480047D6
:10026000FEE7FEE7FEE7FEE7FEE7FEE7FEE7FEE766
:10027000FEE7FEE7692000088901000840EA010363
:100280009B0703D009E008C9121F08C0042AFAD24C
:1002900003E011F8013B00F8013B521EF9D2704710
:1002A000064C074D06E0E06840F0010394E80700C3
:1002B00098471034AC42F6D3FFF76AFF9433000836
:1002C000B4330008014800F02CB900008000002081
:1002D00070B5044600688168C943C9071CD18168AC
:1002E00021F00101816000F033FD05460FE000BF01
:1002F00000F02EFD401B022809D9A06A40F0100032
:10030000A062E06A40F00100E062012070BD206858
:100310008068C043C007EBD0002070BDF8B5002650
:100320000446009600688168C943C90728D08168DF
:1003300041F001018160134813490068B0FBF1F0FE
:1003400000E0401E00900028FBD100F001FD0546B2
:1003500011E000BF00F0FCFC401B02280BD9A06A92
:1003600040F01000A062E06A40F00100E06284F812
:1003700024600120F8BD20688068C043C007E9D12F
:100380000020F8BD1C00002040420F00FEE70000E6
:1003900004484168044A116000214160034800F0AC
:1003A00043BB0000001000E000000020B40100206A
:1003B000014800F039BB0000F80100200B4B016838
:1003C0001422994207D20A4B1944B1FBF2F1890079
:1003D0000164084908E0054B5B421944B1FBF2F1A6
:1003E0008900016401490839C1637047080402406B
:1003F000F8FFFDBF0000024030B590F840500124E6
:10040000AC40C56B6C60046863604368102B036884
:1004100003D099600068C26030BD9A600068C16016
:1004200030BD704770470000F8B50024009490F884
:1004300024202546012A12D0012280F824204A686F
:100440001F23072A0DD20668776B521E02EB820229
:1004500093409F430B6893401F43776319E002204A
:10046000F8BD06680D2A0AD2376BD21F02EB820252
:1004700093409F430B6893401F43376309E0F76A3B
:100480000D3A02EB820293409F430B6893401F4357
:10049000F7620A68072306680A2A0AD9F7680A3A3F
:1004A00002EB420293409F438B6893401F43F760E7
:1004B00008E0376902EB420293409F438B68934008
:1004C0001F4337610A68102A04D0112A02D0122A69
:1004D00016D01AE00268936843F400039360096839
:1004E000102912D10B490C4A0968B1FBF2F101EB5A
:1004F0008101490000E0491E00910029FBD104E080
:1005000006490A6842F080720A6080F8245020464A
:10051000F8BD00001C00002040420F000000014018
:10052000704710B5044600684168890626D5016801
:10053000890723D5A16AC90603D4A16A41F40071D1
:10054000A1628168C1F34241072910D1E16871B904
:10055000416821F020014160A06A20F48070A0620F
:10056000A06AC00403D4A06A40F00100A062204643
:10057000FFF7D6FF21686FF012000860206841681D
:1005800009062ED5016849072BD5A16AC90603D4EF
:10059000A16A41F40051A1628168C1F302310729C7
:1005A00009D04168490515D48168C1F34241072942
:1005B00010D1E16871B9416821F080014160A06A01
:1005C00020F48050A062A06AC00503D4A06A40F065
:1005D0000100A0622046FFF725FF21686FF00C00A4
:1005E00008602068416849060DD50068C0070AD038
:1005F000A06A40F48030A062204600F093F82168A1
:100600006FF00100086010BD2DE9F0414FF00007C8
:1006100004003D467ED0A06A002628B9E66284F830
:100620002460204600F080F82046FFF751FEA16AC2
:10063000C90600D420B1A06A40F01000A06269E0B1
:10064000A16A21F4885141F00201A1626268E16966
:10065000E3680A4347EA43010A43A1684FF48077FD
:10066000B94209D0012907D05FF00001D4F814C0C5
:10067000BCF1010F02D00AE03946F7E7F3B1A36AF3
:1006800043F02003A362E36A43F00103E3622368BB
:10069000D3F804C02CF4694C4CEA010CC3F804C034
:1006A00021688B68DFF870C003EA0C0313438B608A
:1006B000A168B9420BD0012909D00CE0DFF85CC079
:1006C000A3690CEB43330B4343F40061DFE7218A5A
:1006D0000D05A5F580152168CB6A23F470032B4323
:1006E000CB62216889680E4B1940914208D1E662BD
:1006F000A16A21F0020141F00101A162BDE8F0818F
:10070000A06A20F0020040F01000A062E06A40F011
:100710000100E0620120F1E7FDF7E1FF00E0FFFFEB
:10072000FE0E1FFF7047000000B50068104987B03B
:1007300088421BD10F48816941F400718161806951
:10074000694600F40070059020200090032001907D
:10075000002002904FF0904000F030FA0022052176
:10076000122000F081FB122000F072FB07B000BDE8
:10077000002401400010024010B5044690F8240007
:10078000012808D0012084F824002046FFF7C6FD88
:10079000010002D02CE0022010BDA06A40F201222C
:1007A000904340F48070A06220684268520505D5ED
:1007B000A26A22F4005242F48052A262A26AD304D6
:1007C0004FF0000204D5E36A23F00603E36200E081
:1007D000E26284F824206FF00202026020688268DE
:1007E000C2F34242072A826804D042F48012826037
:1007F000084610BD42F4A002F9E710B5044690F88F
:100800002400012807D0012084F824002046FFF7A7
:100810005FFD10B107E0022010BDA16A21F48851EC
:1008200041F00101A162002184F8241010BD70B5CF
:100830004379012B13D0012444710223037105680D
:100840002B684FF47C668E4042F08002B3438A40AE
:1008500013432B60047100214171084670BD0220D2
:1008600070BD70B54379012B1AD001264671022361
:10087000037105682C6840F6FE7393409C43D1E9F0
:1008800000310B43934023432B6001680B68C02465
:100890009440A3430B60067100214171084670BD6E
:1008A000022070BD70B5040003D02079002510B17E
:1008B00005E0012070BD6571204600F007F80220B8
:1008C0002071256101202071002070BDF0B5054622
:1008D00000681B4987B088422FD11A48C16941F08E
:1008E0000051C161C069102700F0005000970590C9
:1008F00003200026CDE9010669464FF0904000F044
:100900005DF9124C1048C4E900078020C4E9026078
:10091000400020618000C4E905062046E66100F041
:10092000D7F818B1B6210AA001F0A3FE0F4801685C
:1009300041F400510160AC60656207B0F0BD000099
:10094000007400400010024030000240B40100205A
:100950002E2E2F5372632F73746D33326633787873
:100960005F68616C5F6D73702E6300000000014072
:1009700018B5046800940068104421B11430009048
:100980000360002018BD0830F9E730B54279012A2C
:1009900012D0012242710223037103681D6802FA1A
:1009A00001F425431D60002901680B6806D0C3F3DC
:1009B00083430F2B0AD00DE0022030BDC3F3830325
:1009C0000F2B07D14B6843F0010302E04B6843F063
:1009D00002034B60027100214171084630BD10B521
:1009E00090F821100024022903D0042181630124FE
:1009F00018E001680A6822F00E020A6001680A68BD
:100A000022F001020A6090F84020C36B012101FA34
:100A100002F25A6080F82110002180F82010416B0A
:100A200001B18847204610BDF0B4C16B0D68016864
:100A30000C68066C042202FA06F32B420FD06307FF
:100A40000DD50B689B0603D40B6823F004030B60E1
:100A500090F840108A40C16B4A60C16A1BE00223D3
:100A600003FA06F72F424FF0000C4FF0010216D0A8
:100A7000A70714D50C68A40605D40C6824F00A0452
:100A80000C6080F8212090F840108B40C16B4B60C7
:100A900080F820C0816A002918D0F0BC08470823DC
:100AA000B3402B4212D0230710D50B6823F00E035E
:100AB0000B6090F84010C36B02FA01F15960826339
:100AC00080F8212080F820C0016BE4E7F0BC70477B
:100AD00070B5040025D0022084F821002268116836
:100AE00043F6F0708143D4E901031843D4E9033598
:100AF0002B43184363691843A3691843E3691843F8
:100B0000084310602046FFF759FC0020A062E06215
:100B100020636063A063012184F8211084F8200021
:100B200070BD012070BD70B5044690F8200000250E
:100B300001280CD0012084F8200094F821600020C6
:100B4000012E06D084F820000225284670BD022020
:100B500070BD022684F82160A0632068066826F034
:100B6000010606602046FFF747FCE06A002820687F
:100B7000016802D041F00E0106E041F00A01016077
:100B80002068016821F0040101602068016841F0DB
:100B900001010160D9E7000070B5044600F0D8F803
:100BA0000546601C02D004480078044400F0D0F8E8
:100BB000401BA042FAD370BD100000202DE9F84F71
:100BC000DFF864B100234FF0010C4FF0030A4FF03F
:100BD0000F090BF1040EA0E00CFA03F6324072D0BC
:100BE0004C68022C01D0122C0ED1DC0800EB8408DA
:100BF000D8F820405D07EF0E09FA07F5AC430D6900
:100C0000BD402543C8F8205007685D0091F8048076
:100C10000AFA05F408F00308A74308FA05F848EAB9
:100C20000708C0F800804F68012F05D0022F03D0BD
:100C3000112F01D0122F11D18768D1F80C80A74352
:100C400008FA05F848EA0708C0F808804768B7437B
:100C50000E79C6F300169E403E434660C668A64322
:100C60008C68AC403443C4604C68E40054D52F4CCD
:100C7000A56945F00105A561A46923F0030504F009
:100C8000010400942A4C2E19B4689D072F0F09FA0D
:100C900007F5AC43B0F1904F04D0264DA84203D1E4
:100CA000012512E0002510E0234DA84201D10225C4
:100CB0000BE0224DA84201D1032506E0204DA842B9
:100CC00002D1042501E027E00525BD402543B5609C
:100CD000DBF800405D464E689443F60300D51443AC
:100CE0002C60DEF8004075464E689443B60300D58C
:100CF00014432C600C4D08352C684E689443F60262
:100D000000D514432C60084D0C352C684E68944374
:100D1000B60200D514432C605B1C0A6832FA03F457
:100D20007FF45AAFBDE8F88F000401400010024084
:100D3000000001400004004800080048000C004882
:100D4000001000480AB1816170478162704700005D
:100D50000148806870470000100000200248816848
:100D6000027811448160704710000020074810B5D8
:100D7000016841F010010160032000F095F80F2098
:100D800000F006F800F024F8002010BD002002401A
:100D900070B50D4D04464FF47A712878B1FBF0F030
:100DA0000A490968B1FBF0F000F086FD48B9102C43
:100DB00007D200222146501E00F056F800206C6039
:100DC00070BD012070BD0000100000201C0000203C
:100DD0001E4808B5816941F001018161816901F016
:100DE00001010091C16941F08051C161C06900F009
:100DF00080500090032000F057F8002211466FF059
:100E00000B0000F031F8002211466FF00A0000F0EC
:100E10002BF8002211466FF0090000F025F800229F
:100E20001146501F00F020F800221146101F00F05C
:100E30001BF800220F21901E00F016F800220F214F
:100E4000BDE80840501E00F00FB80000001002403E
:100E500000F01F02012191404009800000F1E020D4
:100E6000C0F8001170470000F0B40E4B1B680C4630
:100E7000C3F30223C3F10705042D00D90425191D6E
:100E8000072901D2002300E0DB1E012606FA05F146
:100E9000491E214099409E40761E16403143F0BCC9
:100EA00001F082B80CED00E0064900F00702086886
:100EB0004FF6FF03184040EA0220034A104308603F
:100EC000704700000CED00E00000FA052DE9F84F36
:100ED000054600686E4CC0036FD5E0690026C0006F
:100EE00008D4E06940F08050E061E069012600F03C
:100EF0008050009067480168C90512D40168804697
:100F000041F480710160FFF723FF074605E000BF51
:100F1000FFF71EFFC01B642835D8D8F80000C005B5
:100F2000F6D5206A10F4407053D0A98801F44071BE
:100F300081424ED0206A4FF4803191FAA1F2B2FA88
:100F400082F29700544A4FF00108174420F4407091
:100F5000C7F8008491FAA1F1B1FA81F102EB8101A5
:100F60000023C1F800342062C00732D0FFF7F0FE42
:100F7000074641F2883A4FF0020907E0FFF7E8FE22
:100F8000C11B514502D90320BDE8F88F99FAA9F198
:100F9000B1FA81F141F040014846B8EB511F01D14F
:100FA00021680CE090FAA0F1B1FA81F141F0400122
:100FB000B0EB511F02D1216A01E015E0616A99FA94
:100FC000A9F0B0FA80F000F01F0008FA00F2114218
:100FD000D4D0206A696820F44070084320621EB1B2
:100FE000E06920F08050E0612878C00705D0206BD0
:100FF000A96820F00300084320632878800705D5FE
:10100000206BE96820F440300843206328784007CB
:1010100005D5206B296920F44020084320632878F7
:10102000800605D5206B696920F010000843206315
:101030002868800305D56068A96A20F48000084309
:1010400060602878400605D5206BA96920F0200053
:10105000084320632878000605D56068E96920F414
:101060004040084360602888000505D56068296A0B
:1010700020F07840084360602888400505D5206B43
:10108000696A20F040000843206300207CE70000EC
:101090000010024000700040000042422DE9F0477D
:1010A000DFF8708105460E46D8F8000000F0070012
:1010B000B0420CD2D8F8001021F007013143C8F833
:1010C0000010D8F8000000F00700B04277D128786F
:1010D000514C800705D56068A96820F0F0000843EE
:1010E00060602878C00759D06968012001290DD0B7
:1010F000022929D05FF0020393FAA3F2B2FA82F236
:1011000042F02002520904D0226803E04FF4003379
:10111000F2E7626A93FAA3F3B3FA83F303F01F03CF
:10112000984002424BD0606820F0030008436060A2
:10113000FFF70EFE6968074641F2883001290DD09D
:101140000229814617D025E04FF00073D4E700BF95
:10115000FFF7FEFDC11B494501D918E081466068D3
:10116000C0F381000128F3D118E000BFFFF7F0FDC4
:10117000C11B49450BD86068C0F381000228F5D136
:101180000CE000BFFFF7E4FDC11B494502D9032075
:10119000BDE8F087606810F00C0FF3D1D8F80010AC
:1011A000404601F00701B1420BD9016821F0070167
:1011B00031430160006800F00700B04201D0012017
:1011C000E6E72878400705D56068E96820F4E06024
:1011D000084360602878000706D56068296920F414
:1011E000605040EAC100606000F052F86168F0228F
:1011F00092FAA2F201F0F001B2FA82F2D140074A6B
:10120000515CC840064908600F20FFF7C1FD00206F
:10121000BEE70000002002400010024058330008E2
:101220001C00002001480068704700001C000020DE
:1012300008480949006849684FF4E06292FAA2F24E
:1012400001F4E061B2FA82F2D140044A515CC84034
:10125000704700001C0000200010024068330008A6
:1012600008480949006849684FF4605292FAA2F2AE
:1012700001F46051B2FA82F2D140044A515CC84094
:10128000704700001C000020001002406833000876
:10129000144B10B55A68144802F00C0104291DD0F3
:1012A00008291BD14FF4701494FAA4F402F47011BD
:1012B000B4FA84F4E1400D4CDB6A615C0F2494FACB
:1012C000A4F403F00F03B4FA84F4E340074C1034A1
:1012D000D203E35C03D5B0FBF3F0484310BD0448F0
:1012E000484310BD0010024000127A003833000855
:1012F00000093D002DE9F84F05460078F74EC0077C
:101300004FF0010425D070686704C0F38100012804
:1013100007D07068C0F3810002281BD17068C00339
:1013200018D597FAA7F0B0FA80F040F020004009F5
:1013300001D0306800E0706A97FAA7F1B1FA81F144
:1013400001F01F0104FA01F1084264D06868002826
:101350007DD060E06868B0F5803F0BD010B1B0F58B
:10136000A02F17D0306820F480303060306820F42F
:10137000802002E0306840F480303060F06AA96874
:1013800020F00F000843F062686828B3FFF7E0FC24
:1013900080460BE0306840F480203060EAE700BF10
:1013A000FFF7D6FCA0EB0800642871D897FAA7F0E5
:1013B000B0FA80F040F02000400901D0306800E031
:1013C000706A97FAA7F1B1FA81F101F01F0104FAEE
:1013D00001F10842E4D01EE0FFF7BAFC804605E0C8
:1013E000FFF7B6FCA0EB08006428DED897FAA7F058
:1013F000B0FA80F040F02000400901D0306800E0F1
:10140000706A97FAA7F1B1FA81F101F01F0104FAAD
:1014100001F10842E4D12878DFF8C48280074FF058
:10142000000A4FF0020732D570684FF0F80B10F049
:101430000C0F07D07068C0F38100022829D17068B2
:10144000C00326D497FAA7F0B0FA80F000E08BE052
:1014500040F02000400901D0306800E0706A97FA3F
:10146000A7F1B1FA81F101F01F0104FA01F108427C
:1014700002D02869012877D130689BFAABF26969FC
:10148000B2FA82F220F0F8009140084330605AE04E
:1014900064E1286988B394FAA4F0B0FA80F048F8BF
:1014A0002040FFF755FC814606E000BFFFF750FCE7
:1014B000A0EB0900022898D897FAA7F0B0FA80F0BC
:1014C00040F02000400901D0306800E0706A97FACF
:1014D000A7F1B1FA81F101F01F0104FA01F108420C
:1014E000E4D030689BFAABF220F0F8016869B2FAF8
:1014F00082F290400143316025E0FFE794FAA4F1C5
:10150000B1FA81F148F821A0FFF722FC814605E0FD
:10151000FFF71EFCA0EB09000228CCD897FAA7F031
:10152000B0FA80F040F02000400901D0306800E0BF
:10153000706A97FAA7F1B1FA81F101F01F0104FA7C
:1015400001F10842E4D1287800076CD5A869A8B356
:1015500094FAA4F0B0FA80F008EB8000C0F8804460
:10156000FFF7F6FB814607E08AE100BFFFF7F0FBDB
:10157000A0EB090002289ED897FAA7F0B0FA80F0F5
:1015800040F06000B4EB501F01D130680BE097FAD7
:10159000A7F0B0FA80F040F06000B7EB501F01D127
:1015A000306A00E0706A97FAA7F1B1FA81F101F0B0
:1015B0001F0104FA01F21042D8D034E0FFE794FA98
:1015C000A4F1B1FA81F108EB8101C1F880A4FFF721
:1015D000BFFB814606E000BFFFF7BAFBA0EB0900A6
:1015E00002289AD897FAA7F0B0FA80F040F060008D
:1015F000B4EB501F01D130680BE097FAA7F0B0FAB6
:1016000080F040F06000B7EB501F01D1306A00E07D
:10161000706A97FAA7F1B1FA81F101F01F0104FA9B
:1016200001F21042D8D12878400774D5F0694FF004
:101630000009C00009D4F06940F08050F061F06901
:101640004FF0010900F08050009026480168C9055C
:1016500012D4016841F480710160FFF779FB834681
:1016600006E000BFFFF774FBA0EB0B00642875D801
:101670001C480068C005F5D5E86801280AD008B103
:10168000052811D0306A20F001003062306A20F065
:10169000040002E0306A40F001003062E868E0B126
:1016A000FFF756FB83460DE0306A40F004003062DD
:1016B000F0E700BFFFF74CFBA0EB0B0141F28830D5
:1016C00081424BD897FAA7F0B0FA80F040F0400082
:1016D000B4EB501F08D1306812E01DE0001002404A
:1016E000000042420070004097FAA7F0B0FA80F084
:1016F00040F04000B7EB501F01D1306A00E0706A43
:1017000097FAA7F1B1FA81F101F01F0104FA01F291
:101710001042CFD02EE034E0FFF71AFB834607E0FB
:10172000FFF716FBA0EB0B0141F28830814215D880
:1017300097FAA7F0B0FA80F040F04000B4EB501FE9
:1017400001D130680CE097FAA7F0B0FA80F040F0D1
:101750004000B7EB501F02D1306A01E083E0706AAD
:1017600097FAA7F1B1FA81F101F01F0104FA01F231
:101770001042D5D1B9F1000F03D0F06920F08050AC
:10178000F061E86980B37168C1F38101022977D003
:101790004FF080714F00022809D091FAA1F0B0FA01
:1017A00080F048F820A0FFF7D3FA05465EE08946AE
:1017B00091FAA1F15046B1FA81F1C24648F82100F0
:1017C000FFF7C6FA804605E0FFF7C2FAA0EB080073
:1017D000022848D897FAA7F0B0FA80F040F020002D
:1017E000400902D0306801E056E0706A97FAA7F12C
:1017F000B1FA81F101F01F0104FA01F10842E3D1CD
:10180000D5E908100843716821F474110843706029
:1018100099FAA9F0B0FA80F04AF82040FFF798FA58
:10182000054604E0FFF794FA401B02281BD897FAFC
:10183000A7F0B0FA80F040F02000400901D03068F5
:1018400000E0706A97FAA7F1B1FA81F101F01F0187
:1018500004FA01F10842E5D01EE000BFFFF778FA74
:10186000401B022802D90320BDE8F88F97FAA7F0A1
:10187000B0FA80F040F02000400902D0306801E06A
:101880000CE0706A97FAA7F1B1FA81F101F01F013B
:1018900004FA01F10842E1D10020E5E70120E3E785
:1018A0004FF0E0210428086903D020F0040008610B
:1018B000704740F00400FAE710B5401EB0F1807F99
:1018C00001D3012010BD4FF0E02460610F216017AB
:1018D00000F06AFB0020A06107202061002010BDFD
:1018E00030B590F83C20012A20D0012280F83C201D
:1018F000022380F83D3003685C6824F070045C606B
:1019000003685C680D682C435C6003689C6824F085
:1019100080049C6003689C6849680C439C6080F864
:101920003D20002180F83C10084630BD022030BD2B
:1019300010B5040003D094F83D0010B107E0012079
:1019400010BD002084F83C00204600F00DF8022075
:1019500084F83D00211D206800F0BAFB012084F8C6
:101960003D00002010BD000008B50C4A01680C487D
:10197000914207D1C16941F01001C161C06900F015
:10198000100009E0074A914207D1C16941F02001E6
:10199000C161C06900F02000009008BD0010004047
:1019A00000100240001400400168CA6842F00102C1
:1019B000CA600068016841F00101016000207047C1
:1019C0000168CA6822F00102CA600068016A41F237
:1019D0001112114207D1016A9210114203D101681C
:1019E00021F001010160002070477047704700003E
:1019F00070B503680446D869196810F00F0508D15E
:101A0000820606D58A0604D52046BDE8704000F05F
:101A1000C5BC9A68002D66D002F0010501F49076ED
:101A20002E4360D0C60707D0CE0505D501261E621D
:101A3000E36E43F00103E366830708D5D30706D0BE
:101A4000266802233362E36E43F00403E366430730
:101A500008D5D20706D0236804221A62E26E42F04B
:101A60000202E26602070AD501F020022A4306D0EC
:101A7000236808221A62E26E42F00802E266E26E11
:101A8000002A29D0800604D5880602D5204600F019
:101A900085FCE06E000703D42068806840061CD5F2
:101AA000204600F057FC20688168490611D58168FE
:101AB00021F040018160606E58B11C494163606E45
:101AC000FEF78DFF002807D0606E416BBDE87040C7
:101AD00008472046FFF78AFF70BD2046FFF786FFC4
:101AE0000020E06670BDC5020ED552020CD54FF441
:101AF00080101862202084F8690084F86A0020466B
:101B0000BDE87040FFF771BF020606D50A0604D58E
:101B10002046BDE8704000F041BD4006E2D54806D1
:101B2000E0D52046BDE8704000F022BCBD22000890
:101B300010B5040003D094F8690010B107E001204B
:101B400010BD002084F86800204600F027F824200B
:101B500084F869002068016821F0010101602046D5
:101B600000F058FC0128EBD0606A10B1204600F06C
:101B700013FB2068416821F490414160206881682E
:101B800021F02A0181602068016841F001010160B3
:101B90002046BDE8104000F063BB000070B506466B
:101BA00000681E4986B0884236D11D48C16941F49B
:101BB0000031C161C069002500F4003005900C209F
:101BC00000900220CDE90105032003900720049036
:101BD00069464FF09040FEF7F1FF134C114820602A
:101BE0001020C4E901058020C4E903056561A561F1
:101BF0002046E561FEF76CFF20B14FF49C710BA00D
:101C000000F037FD34660022052126206662FFF7CA
:101C10002BF92620FFF71CF906B070BD00440040E8
:101C20000010024080000240F80100202E2E2F53A9
:101C300072632F73746D3332663378785F68616CCA
:101C40005F6D73702E63000090F86A30202B36D1E0
:101C500099B192B190F86830012B30D0012380F80F
:101C600068304165A0F85820A0F85A208168FF220A
:101C7000B1F5805F03D039B10BE0012070470169F5
:101C8000D1B940F2FF1102E00169A9B17F21A0F8AA
:101C90005C100021C166222280F86A2080F868105A
:101CA00001688A6842F001028A600068016841F4B4
:101CB0009071016000207047A0F85C20E9E70220E5
:101CC000704770472DE9F843044690F869001F46B5
:101CD00016460D4620284DD1CDB1C6B194F8680006
:101CE000012847D0012084F868004FF00008C4F8AC
:101CF0006C80212084F869005034FFF729F824F81B
:101D0000026B814624F852694FF4805618E0012096
:101D1000BDE8F883B4F85200401EA4F852004B46C8
:101D2000002280212046009700F06AFCA0B9A0683C
:101D3000B04201D1206988B115F8010B21680885EE
:101D4000B4F852000028E5D14B460022402120463D
:101D5000009700F055FC30B10320D9E735F8020BAD
:101D6000C0F30800EAE7202084F8690084F868805E
:101D70000020CDE70220CBE770B5044690F869005B
:101D8000202834D181B37AB394F8680001282ED08A
:101D9000012084F8680044F84C1FA280E2800025EE
:101DA0002562212060776169124813468862616963
:101DB0001148C8626169114808636069456354F855
:101DC0004C6C216806F128026069FEF7ACFE54F8FD
:101DD0004C1C40200862257754F84C0C816841F077
:101DE00080018160002070BDFFE70120FBE7022039
:101DF000F9E700001B2300084B230008D12200084C
:101E000070477047FEE700003EB50F4800240D49BB
:101E10008460C46044610160012505614FF4602164
:101E20004460C161FEF7F0FB00B1FEE70520CDE99B
:101E30000005694602940448FEF7F6FA002800D02F
:101E4000FEE73EBD00240140800000200EB50F4992
:101E50000D4808600846FEF725FD00B1FEE70420A6
:101E6000009000200246019069460848FEF7F9FC00
:101E700000B1FEE74FF4306200210448FEF7D7FCC2
:101E8000002800D0FEE70EBD00740040B000002026
:101E900030B5174887B0416941F48001416141691B
:101EA00001F480010591416941F4003141614169CA
:101EB00001F400310591416941F4801141614069AB
:101EC0000C4D00F480104FF4704405900022214620
:101ED0002846FEF737FF012000210094CDE90101DB
:101EE000039169462846FEF769FE07B030BD000041
:101EF00000100240000C00481CB50D480B4900249E
:101F00000160D721C0E9011401218461C160FFF79C
:101F10000FFD00B1FEE72020CDE90004694604482A
:101F2000FFF7DEFC002800D0FEE71CBD00100040DB
:101F3000C40000201CB50C480A490024C0E9001464
:101F40008460C4608461FFF7F3FC00B1FEE7009495
:101F5000694605480194FFF7C3FC002800D0FEE75E
:101F60001CBD000000140040040100200C4810B506
:101F70000A4901604FF434514160002181600C2214
:101F8000C160C0E904128161C16101624162FFF771
:101F9000CFFD002800D0FEE710BD00000044004047
:101FA00044010020FEE770470907090E002806DA01
:101FB00000F00F0000F1E02080F8141D704700F1E0
:101FC000E02080F800147047012000F07DFCFBE762
:101FD000012000F079FCFBE7012000F075FCFBE735
:101FE00010B5FEF7BBFEBDE8104000F079BC30B57F
:101FF0009BB001210804CDE90010002402940225C1
:102000000491CDE907504FF4E01009906846FFF7BE
:1020100071F900B1FEE70F20CDE915054FF480609E
:10202000CDE91740022115A81994FFF737F800B140
:10203000FEE782200A900D9411940AA8FEF746FF4D
:1020400000B1FEE7FFF7EEF84FF47A71B0FBF1F064
:10205000FFF732FC0420FFF723FC00220F21501E63
:10206000FEF702FF1BB030BD1448016841F4700157
:1020700001601348016841F0010101604168114AA3
:10208000114041600168104A11400160016821F46B
:1020900080210160416821F4FE014160C16A21F0A4
:1020A0000F01C162016B094A114001630021816087
:1020B0000249C003803908607047000088ED00E0E5
:1020C000001002400CC07FF8FFFFF6FECCFC00FFC2
:1020D0002DE9F04702684FF0804A254D254E264FE6
:1020E000DFF898C0264B274CDFF89C90504507D06E
:1020F000A84205D0B04203D0B84201D0604506D115
:1021000022F070084A68504542EA080216D0A842F8
:1021100014D0B04212D0B84210D01C4DA8420DD0FD
:102120001B4DA8420AD01B4DA84207D0984205D0AB
:10213000A04203D0484501D0604503D122F4407548
:10214000CA682A434D6922F080022A4302608A68E5
:10215000C2620A688262984203D0A04201D0484518
:1021600001D10969016301214161BDE8F0870000E7
:102170000004004000080040000C0040005C0140EA
:102180000040014000440140004801400018004068
:10219000001C00400020004090F82410C90706D021
:1021A00001684A68836A22F400321A434A6090F850
:1021B0002410890706D501684A68C36A22F4803270
:1021C0001A434A6090F82410490706D501684A6806
:1021D000036B22F480221A434A6090F82410090706
:1021E00006D501684A68436B22F400421A434A60EC
:1021F00090F82410C90606D501688A68836B22F41A
:1022000080521A438A6090F82410890606D5016826
:102210008A68C36B22F400521A438A6090F8241033
:10222000490611D501684A68036C22F480121A43EA
:102230004A60016CB1F5801F06D101684A68436CA1
:1022400022F4C0021A434A6090F82410090606D509
:1022500001684A68806C22F4002202434A60704799
:10226000F8B500260446C666FEF772FD05462068EE
:1022700000686FF07E47000708D52B4600224FF418
:1022800000112046009700F0BBF960B92068006893
:1022900040070AD52B4600224FF4800120460097C4
:1022A00000F0AEF908B10320F8BD202084F86900E1
:1022B00084F86A0084F868600020F8BD10B5406AB0
:1022C0000021A0F85A10A0F85210FFF78FFB10BDA4
:1022D00070B5446A94F869000025212808D1206867
:1022E0008068000604D5A4F85250204600F04DF84E
:1022F00094F86A00222808D120688068400604D536
:10230000A4F85A50204600F025F8E06E40F0100086
:10231000E0662046FFF76AFB70BD10B50146406AD3
:102320000968096889060DD40021A0F852100168D7
:102330008A6822F080028A600068016841F04001EA
:10234000016010BDFFF75CFD10BD10B5406AFFF7DE
:1023500058FD10BD01680A6822F490720A60016895
:102360008A6822F001028A60202180F86A10704792
:1023700010B501680A6822F040020A60202180F846
:102380006910FFF73DFD002010BD01680A6822F0CA
:10239000C0020A60202180F86910704710B5B0F8BB
:1023A0005C2090F86A300168222B05D0886940F0E3
:1023B00008008861022010BD898C8368B3F5805FB6
:1023C00001D103696BB11140426D531C436511701B
:1023D000B0F85A10491E0904090CA0F85A1007D089
:1023E00015E0436D11401980416D891C4165EFE78F
:1023F00001680A6822F490720A6001688A6822F013
:1024000001028A60202180F86A10FFF75AFC002040
:1024100010BD00002DE9F041044610202369A26898
:10242000E6691A436369002133431A4323680D4662
:102430001E6849F20C67BE4316431E60226853684B
:10244000E66823F4405333435360236AA2691A4376
:1024500023689E6826F4306616439E60494F2268C2
:10246000494B0603BA420CD11B6B13F0030306D091
:10247000012B2BD0022B2BD0032B2AD124E00120BF
:1024800027E0424FBA420CD11B6B13F4403319D0F2
:10249000B3421BD0B3F5003F1AD0B3F5403F18D17B
:1024A00012E03B4FBA4214D11B6B13F4402309D006
:1024B000B3F5802F0AD0B3F5002F09D0B3F5402F24
:1024C00007D101E0002004E0022002E0042000E047
:1024D0000820E7694FF400439F4226D109281DD206
:1024E000DFE800F00508121C151C1C1C1800FEF784
:1024F0009FFE01E0FEF7B4FE4100606801EB500171
:10250000B1FBF0F081B20AE022496068F6E7FEF71D
:10251000BFFEF1E7606806EB5001F1E7012521F00D
:102520000F00C1F3420108431CE0092825D2DFE86F
:1025300000F005080B24102424241C00FEF778FE6C
:1025400009E0FEF78DFE06E01349606801EB5001DB
:102550000EE0FEF79DFE0146606801EB5001B1FB05
:10256000F0F080B22168C86008E0606803EB5001B9
:10257000B1FBF0F080B2D06000E001252846BDE854
:10258000F08100000038014000100240004400408B
:10259000004800400024F40000127A0090F869100E
:1025A000212901D002207047B0F8521021B1816872
:1025B000B1F5805F0BD00CE001680A6822F0800260
:1025C0000A600068016841F0400101600CE00169A7
:1025D00061B1C16C4A1CC26402680978A2F8281073
:1025E00030F8521F491E018000207047C16C0268FC
:1025F0000988C1F308011185C16C891CC164EFE72A
:102600002DE9F041984617460E460446069D1DE00A
:10261000681C1BD02DB1FEF79BFBA0EB0800A84265
:1026200014D92068016821F4D071016020688168A4
:1026300021F001018160202084F8690084F86A009B
:10264000002084F868000320BDE8F0812068C0699C
:1026500036EA000004D00020B842D9D00020F3E7C9
:102660000120F9E70148FFF7C3B900004401002049
:10267000FEE7FEE702E008C8121F08C1002AFAD1EF
:1026800070477047002001E001C1121F002AFBD1F2
:102690007047000074A0A0B007C801AB002583E814
:1026A000070074A104ABD1E90001CDE90D0173A1CC
:1026B0004FF4406407C983E8070073A207AB07CA59
:1026C00083E8070073A20AAB07CA83E807008DF806
:1026D0000050FEF74BFBFFF78AFCFFF7D9FB704871
:1026E000416941F0010141614069002200F00100AF
:1026F0001E9005210D20FEF7B7FB0D20FEF7A8FB6D
:10270000002205211120FEF7AFFB1120FEF7A0FBF0
:10271000FFF72CFCFFF79AFBFFF7EEFBFFF774FBCC
:10272000FFF708FCFEF77EFD5E48016841F080710E
:1027300001605D48016841F00101016045605B484E
:10274000FFF732F9594814380068016841F0010177
:102750000160142256490FA8FDF790FD00210FA833
:1027600000F0C8F8534D524914222860143114A8BF
:10277000FDF784FD002114A800F0BCF84C49686006
:102780001422283119A8FDF779FD002119A800F0BD
:10279000B1F8A86000F09FF84448012269468030F3
:1027A000FFF752FA414D444F80354FF480564FF4B5
:1027B0007A784FF4FA7900BFB5F85A000028FBD1B7
:1027C0009DF80000012807D002280ED0032819D058
:1027D000042826D078B33FE0012231463846FEF780
:1027E000B1FA43460A2201A907E0002231463846E1
:1027F000FEF7A8FA43460A2204A92C488030FFF7C6
:1028000061FA26E0294800211438FEF7BEF827486F
:102810000022234611461438FEF7AAF80A220DA911
:1028200013E022484438FDF7A7FF2048FFF7BCF823
:102830000A2207A909E0FFE71C484438FDF7DDFF3D
:102840001A48FFF7BDF80A220AA918488030FFF796
:1028500093FA4846FEF7A0F91448012269468030F1
:10286000FFF7F2F9A8E700004C6564204F4E0D0A0F
:1028700000000000302C3937360D0A004C6564200A
:102880006F66660D0A000000414443206F6E0D0A1A
:1028900000000000414443206F66660D0A000000FE
:1028A00000100240FCED00E0001000E0C400002039
:1028B000FC32000804000020000C00480146002003
:1028C000842900D0C81C704710B500B9012000F061
:1028D000FFFA002010BD10B500F020FB002010BD55
:1028E00010B500F037FC012803D0BDE8104000F01F
:1028F000EFBB10BD3EB504460D46B0F90800FFF72A
:10290000DDFF02A9CDE90001208A2B4682B2D4E97D
:10291000001000F0F3FB012801D000203EBD02981A
:102920003EBD00002DE9F041184C0F460546E66813
:102930002068001D00F016FA38B9206890F82C10B5
:1029400001208840216981432161681C07D137B18A
:102950002168BDE8F0410E48091D00F03BBA20682F
:102960003544B5424560216805D2A06BBDE8F04111
:10297000091D00F017BA606B091D00F013FAA06A78
:10298000854200D2A562BDE8F0810000440000202D
:10299000180F00202DE9F041054600F027FA2E4CD3
:1029A000A068401CA06020682C4F10B1606940B343
:1029B0002DE02560A068012829D1002606EB8600BD
:1029C00007EB800000F0E0F9761C072EF6D32348D1
:1029D0008C3000F0D9F92148A03000F0D5F91F481B
:1029E000B43000F0D1F91D48C83000F0CDF91B48D3
:1029F000DC3000F0C9F919488C3060631430A063F2
:102A000005E02068E96AC06A884200D82560606AEB
:102A1000401C6062E96A01202269884010432061FD
:102A200001EB810007EB8000291D00F0D3F900F0D5
:102A3000FDF9606900280CD02068E96AC06A884204
:102A400007D207494FF080500860BFF34F8FBFF3A4
:102A50006F8FBDE8F0810000440000203C0E002094
:102A600004ED00E070B5114E114C17E000F08AFA49
:102A70003068B8B100F0E0FB00F0B8F9F068C56864
:102A8000281D00F06FF9A068401EA0606068401E1D
:102A9000606000F0CBF9284600F00CF86068002870
:102AA000E4D170BD00F0C8FBF8E70000040F00207F
:102AB0004400002010B50446006B00F0CBF920461E
:102AC000BDE8104000F0C6B910484FF4406142071D
:102AD00006D0C01D0D4920F00700411AC1F5406124
:102AE0000B4A00230144C2E900030839103A21F0DF
:102AF000070111604B600B600B1AC0E90013936073
:102B00004FF000405360D060704700003C0200204E
:102B100030000020074C4FF08056074DFFF7A2FF12
:102B200020680128FAD92E60BFF34F8FBFF36F8F53
:102B3000F4E700003C0E002004ED00E02DE9F04732
:102B40009A46DDE9098481466FF00303206B03EBAD
:102B500082021044089D20F00706700707D050201D
:102B600080F31188BFF34F8FBFF36F8FFEE72318F9
:102B70000A5C83F834200A5C12B1401C1028F6D39A
:102B8000002784F84370072D00D30625E562C4E9C9
:102B90001157201D00F003F904F1180000F0FFF8B0
:102BA0002461C5F107006462A061E76484F8507095
:102BB00052464946304600F0BFF82060B8F1000F99
:102BC00001D0C8F80040BDE8F087000030B51149D9
:102BD00000E011460A688242FBD34B685C188442CD
:102BE00003D1406818444860084643681C18944262
:102BF00009D1084C103C2468A24209D052681A44FA
:102C000042600A6812680260814200D0086030BDEC
:102C10000460F9E7300000200648416B096829B1DB
:102C2000416BC968C9684968816270474FF0FF31DC
:102C3000FAE700004400002008484068401C4FF0BC
:102C4000500080F3118804D0BFF34F8FBFF36F8F14
:102C5000FEE7BFF34F8FBFF36F8FFEE73800002012
:102C60002DE9F0410546002700F08CF9314E30681F
:102C700008B9FFF729FFF06805424BD1C5B3083505
:102C800068070ED005F00700C0F10800054468078A
:102C900007D0502080F31188BFF34F8FBFF36F8FA1
:102CA000FEE72DB37068854234D8224810300146C3
:102CB0000C6801E020460C466168A94202D22168F6
:102CC0000029F7D131688C4224D00768216801605F
:102CD00060680837411B10290FD96019420708D0D6
:102CE000502080F31188BFF34F8FBFF36F8FFEE743
:102CF00010E041606560FFF769FF61687068401A25
:102D00007060B268904200D2B060F0680143002069
:102D1000C4E9000100F090FA780707D0502080F352
:102D20001188BFF34F8FBFF36F8FFEE73846BDE8C2
:102D3000F08100002000002010B5031F4FF08074C8
:102D40001C601B1F21F001011960191F044B0B604F
:102D500014390A60091F6FF0020244380A6010BD7E
:102D6000392C0008D0E9013201699A60D0E90123C9
:102D70005A604A68824201D182684A600022026138
:102D80000868401E0860704700F108014FF0FF32EC
:102D9000C0E90112C160016100210160704700219A
:102DA0000161704730B50B685A1C02D000F108026F
:102DB00002E0026904E02246546825689D42FAD97F
:102DC00053684B6099608A60516008610168491CD2
:102DD000016030BD42684A6093688B6093685960B7
:102DE000916008610168491C01607047502080F3C0
:102DF0001188BFF34F8FBFF36F8F0A494868401C9B
:102E0000486001280CD10848006810F0FF0F07D077
:102E1000502080F31188BFF34F8FBFF36F8FFEE711
:102E2000704700003800002004ED00E008494868C1
:102E300028B1401E486001D180F3118870475020AE
:102E400080F31188BFF34F8FBFF36F8FFEE7000051
:102E50003800002070B5002827D0144DA0F10804D8
:102E60006168E868014207D1502080F31188BFF300
:102E70004F8FBFF36F8FFEE722683AB1502080F387
:102E80001188BFF34F8FBFF36F8FFEE781436160FF
:102E900000F078F860686968084468602046FFF7C9
:102EA00095FEBDE8704000F0C7B970BD200000205D
:102EB00006484FF47A710068B0FBF1F14FF0E02062
:102EC000491E416107210161704700001C0000207C
:102ED00010B5020014D00F48006B38B1502080F3B9
:102EE0001188BFF34F8FBFF36F8FFEE700F04AF8F2
:102EF00000211046FFF716FD00F09EF9002807D1CB
:102F000005494FF080500860BFF34F8FBFF36F8FBC
:102F100010BD00004400002004ED00E01CB5154881
:102F20000024CDE900402346802213A1144800F07C
:102F3000E5F8012809D0401C1AD1502080F31188EF
:102F4000BFF34F8FBFF36F8FFEE7502080F31188E0
:102F5000BFF34F8FBFF36F8F06484FF0FF312C3810
:102F6000816201214161C460BDE81C4000F040B8AD
:102F70001CBD00007000002049444C4500000000CA
:102F8000152B00080248016B491C016370470000C3
:102F9000440000201448016B11B10121C161704748
:102FA0000021C1610169B1FA81F1C1F11F0101EB99
:102FB00081020E4951F822306BB101EB820101F11F
:102FC00008034A6852684A609A4201D152684A60CE
:102FD000D16801607047502080F31188BFF34F8F94
:102FE000BFF36F8FFEE70000440000203C0E00207E
:102FF0001CB532480168324A914207D1502080F313
:103000001188BFF34F8FBFF36F8FFEE700682C4925
:10301000491E884207D1502080F31188BFF34F8F9B
:10302000BFF36F8FFEE7274908780190FF200870F3
:1030300008788DF800009DF800009DF8002000F051
:10304000F000904207D0502080F31188BFF34F8FDB
:10305000BFF36F8FFEE79DF800001B4A00F05000A1
:1030600010700720906005E09DF800305B008DF83F
:103070000030401E9DF800301B06F5D4000200F41D
:10308000E0609060019808700C482030016841F4BD
:1030900070010160016841F070410160FFF708FFB5
:1030A00000205060FDF79AF80848016841F040415F
:1030B0000160FDF783F800201CBD000000ED00E07A
:1030C00071C20F4100E400E03800002034EF00E05E
:1030D00010B5502080F31188BFF34F8FBFF36F8F6F
:1030E00000F046F818B104494FF080500860002005
:1030F00080F3118810BD000004ED00E02DE9FF5FB2
:103100008346DDE90E87994616468A469000FFF70A
:10311000A7FD05001AD05420FFF7A2FD040012D02D
:1031200025630021CDE90241CDE900874B463246B7
:1031300051465846FFF702FD2046FFF72BFC0120C1
:1031400004B0BDE8F09F2846FFF784FE4FF0FF3043
:10315000F6E700000548416919B1006B18B100207D
:103160007047012070470220704700004400002093
:103170002DE9F0412E4C0027206B40B1A069401C86
:10318000A061E06900B101273846BDE8F081E6683A
:10319000761CE66013D1606B006838B1502080F374
:1031A0001188BFF34F8FBFF36F8FFEE7606BA16B8A
:1031B0006163A063206A401C2062FFF72DFDA06AB6
:1031C000DFF87080864209D3606B006880B1606B65
:1031D000C068C568686886420DD2A0622068C06A6F
:1031E00000EB800158F821000128CAD90127C8E75F
:1031F0004FF0FF30F1E7281DFFF7B4FDA86A18B1C2
:1032000005F11800FFF7AEFDE86A0121226981404F
:103210001143216100EB800108EB8100291DFFF7BC
:10322000D9FDE86A2168C96A8842CDD30127CBE776
:10323000440000203C0E00202DE9F0472C4D0024D6
:103240002746286B38B1FFF7D1FD286B401E286355
:10325000286B40B146E0502080F31188BFF34F8FB8
:10326000BFF36F8FFEE7A968224E0120D1B3A6F10C
:10327000B40980463068E8B1F068C46804F1180009
:10328000FFF770FD201DFFF76DFDE06A2A6908FA5F
:1032900000F11143296100EB800109EB8100211D40
:1032A000FFF798FDE06A2968C96A8842E2D3C5F849
:1032B0001C80DFE70CB1FFF7AFFCAC6944B14646B8
:1032C000FFF756FF00B1EE61641EF9D10020A8613E
:1032D000E86938B10849012738070860BFF34F8F04
:1032E000BFF36F8FFFF7A2FD3846BDE8F0870000FF
:1032F00044000020F00E002004ED00E088330008B8
:10330000C91F00080000000000000000800000004D
:1033100070330008D11F0008FDFF0000000000000E
:10332000800000007C330008D91F0008FDFF00006A
:1033300000000000800000000203040506070809E1
:103340000A0B0C0D0E0F10100102030405060708EE
:10335000090A0B0C0D0E0F10000000000000000009
:10336000010203040607080900000000010203042B
:103370006D795461736B3032000000006D795461D7
:10338000736B30330000000064656661756C7454C3
:1033900061736B00B433000800000020800000005F
:1033A000742600083434000880000020B0140000A7
:1033B000842600080000000000000000000000005B
:1033C00000000000010000001000000000000000EC
:1033D00000127A0000000000000000000000000061
:1033E00000000000000000000000000000000000DD
:1033F000AAAAAAAA00000000000000000000000025
:1034000000000000000000000000000000000000BC
:1034100000000000000000000000000000000000AC
:10342000000000000000000000000000000000009C
:043430000000000098
:040000050800018965
:00000001FF
